:020000040800F2
:10000000E0A00020450100087F1100087F100008D3
:100010007D110008DD0100087D1F000800000000C0
:10002000000000000000000000000000E91C0008C3
:10003000F901000800000000311C0008EB1C00085A
:100040005F0100085F0100085F0100085F01000810
:100050005F0100085F0100085F0100085F01000800
:100060005F0100085F0100085F0100085F010008F0
:100070005F0100085F0100085F0100085F010008E0
:100080005F0100085F0100085F0100085F010008D0
:100090005F0100085F0100085F0100085F010008C0
:1000A0005F0100085F0100085F0100085F010008B0
:1000B0005F0100085F0100085F0100085F010008A0
:1000C0005F0100085F0100085F0100085F01000890
:1000D0005F0100085F0100085F0100085F01000880
:1000E0005F0100085F0100085F0100085F01000870
:1000F0005F0100085F0100085F0100085F01000860
:100100005F0100085F0100085F0100085F0100084F
:100110005F0100085F0100085F0100085F0100083F
:100120005F0100085F0100085F0100085F0100082F
:10013000DFF80CD000F040F800480047E12100084B
:10014000E0A000200648804706480047FEE7FEE79B
:10015000FEE7FEE7FEE7FEE7FEE7FEE7FEE7FEE777
:10016000611D000831010008D2B201E000F8012B46
:10017000491EFBD270470022F6E710B513460A4627
:1001800004461946FFF7F0FF204610BD30B50B4678
:10019000014600202022012409E021FA02F59D42B7
:1001A00005D303FA02F5491B04FA02F52844151E8B
:1001B000A2F10102F1DC30BD064C074D06E0E0681B
:1001C00040F0010394E8070098471034AC42F6D39E
:1001D000FFF7B2FF8C510008AC510008FEE70000A9
:1001E00001B54FF47A7301226946024800F0B4FD6C
:1001F00008BD00004800002070472DE9F04113259C
:100200009826102000F0A4F800270024FF2000F01A
:10021000B9F8641CA4B2AC42F8D37F1CBFB2B74299
:10022000F3D3132000F094F800270024FF2000F0FF
:10023000A9F8641CA4B2AC42F8D37F1CBFB2B74289
:10024000F3D3122000F084F8BDE8F04100F0C2B80A
:100250002DE9F04781468A4613264FF09808102072
:1002600000F076F80024002504FB06F709EB0500F2
:10027000385C00F087F86D1CADB2B542F6D3641C53
:10028000A4B24445EFD3132000F062F80024002507
:1002900004FB06F70AEB0500385C00F073F86D1CF0
:1002A000ADB2B542F6D3641CA4B24445EFD31220DC
:1002B00000F04EF8BDE8F04700F08CB810B5234CC4
:1002C00001220221204600F0A4F9C82000F096F88F
:1002D00000220221204600F09CF9C82000F08EF890
:1002E00001220221204600F094F9C82000F086F88F
:1002F000062000F02DF8172000F044F8172000F039
:1003000041F8172000F03EF8042000F021F800F03A
:1003100061F8002000F01CF80F2000F033F80D20E9
:1003200000F030F8612000F013F8982000F02AF86F
:10033000002000F027F8982000F024F8502000F06A
:1003400007F8772000F01EF8002010BD00080140DB
:1003500070B50B4C054600220421204600F059F9E7
:1003600000221021204600F054F92846FFF738FFFC
:100370002046BDE870400122102100F04AB900007B
:100380000008014070B50B4C0546012204212046AF
:1003900000F03FF900221021204600F03AF92846EB
:1003A000FFF71EFF2046BDE870400122102100F03B
:1003B00030B900000008014010B50220FFF7C8FF67
:1003C00000F008F80720FFF7C3FFBDE81040A520A4
:1003D000FFF7D8BF10B5084C7120FFF7B9FF08210F
:1003E000204600F011F940F30000401CF4D1BDE8B4
:1003F0001040C82000F002B80008014070B5044663
:1004000000F00CF90546601C02D004480078044452
:1004100000F004F9401BA042FAD370BD1400002084
:100420002DE9F84FDFF8B8A100220AF1040B1446B9
:1004300001274FF00F090BF1040E00BF0B6807FAFC
:1004400004F52B40AB4274D1DFF898C14E68A6EB9F
:100450000C0866452BD00DDC032E34D005DC36B3FA
:10046000012E19D0022E2FD11BE0112E16D0122EE4
:100470002AD119E0B8F5881F19D006DCB8F5803FFD
:1004800015D0B8F5801F1FD111E0B8F5001F0ED0B0
:10049000B8F5041F18D10AE0CA6815E0CA68121D31
:1004A00012E0CA6808320FE0CA680C320CE08A68B1
:1004B0002AB1012A4FF0080203D0456104E004226A
:1004C00002E0056100E00022FF2B01D8064601E0B2
:1004D00000F104064FEA840501D9A5F12005D6F8FC
:1004E00000C009FA05F82CEA080C02FA05F54CEAF6
:1004F000050CC6F800C04D68ED006AD53A4DAE69EE
:1005000046F00106AE61AD6924F0030605F0010571
:100510000095364D06EB050CDCF80850A6074FEAAF
:10052000167809FA08F6B543314EB04202D10026DA
:100530001AE04EE02F4EB04201D1012614E02E4EBB
:10054000B04201D102260FE02C4EB04201D1032669
:100550000AE02B4EB04201D1042605E0294EB042FC
:1005600001D1052600E0062606FA08F62E43CCF84F
:1005700008604D68DAF80060ED03554601D51E436A
:1005800000E09E432E604D68AD0305D5DBF80060AA
:100590001E43CBF8006004E0DBF800509D43CBF82D
:1005A00000504D68DEF80060ED02754601D51E432F
:1005B00000E09E432E604D68AD0205D5084D0C3518
:1005C0002E681E432E6004E0054E0C3635689D43B0
:1005D0003560641C102CFFF431AFBDE8F88F0000CB
:1005E0000004014000001110001002400000014012
:1005F00000080140000C01400010014000140140BF
:1006000000180140001C01408068084000D0012013
:1006100070470AB1016170470904FBE7014880682F
:1006200070470000140000200248816802781144DD
:100630008160704714000020074810B5016841F040
:1006400010010160032000F089F8002000F006F896
:1006500000F024F8002010BD0020024070B50D4DC0
:1006600004464FF47A712878B1FBF0F00A49096822
:10067000B1FBF0F000F031FC48B9102C07D2002299
:100680002146501E00F04AF800206C6070BD012029
:1006900070BD000014000020200000201D4808B597
:1006A000816941F001018161806900F001000090E1
:1006B000032000F053F8002211466FF00B0000F009
:1006C0002DF8002211466FF00A0000F027F80022F2
:1006D00011466FF0090000F021F800221146501F6A
:1006E00000F01CF800221146101F00F017F800223D
:1006F0001146901E00F012F800221146501E00F024
:100700000DF80548416821F0E06141F00071416059
:1007100008BD00000010024000000140F0B40E4B84
:100720001B680C46C3F30223C3F10705042D00D94F
:100730000425191D072901D2002300E0DB1E012634
:1007400006FA05F1491E214099409E40761E16404A
:100750003143F0BC00F014BD0CED00E0064900F0A0
:10076000070208684FF6FF03184040EA0220034AD8
:1007700010430860704700000CED00E00000FA052F
:100780002DE9F047DFF83C8105460E46D8F8000019
:1007900000F00700B0420CD2D8F8001021F0070199
:1007A0003143C8F80010D8F8000000F00700B0424C
:1007B00063D12878444C800705D56068A96820F08B
:1007C000F000084360602878C00745D068680128B9
:1007D00016D02168022816D0890700294DDA6168F1
:1007E00021F0030101436160FFF718FF69680746C4
:1007F00041F2883001290FD00229814619D027E023
:1008000021688903E9E78901E7E700BFFFF706FFF1
:10081000C11B494501D918E081466068C0F38100D9
:100820000128F3D118E000BFFFF7F8FEC11B4945CE
:100830000BD86068C0F381000228F5D10CE000BF3E
:10084000FFF7ECFEC11B494502D90320BDE8F08744
:10085000606810F00C0FF3D1D8F80010404601F09A
:100860000701B1420BD9016821F007013143016052
:10087000006800F00700B04201D00120E6E72878C8
:10088000400705D56068E96820F4E06008436060CF
:100890002878000706D56068296920F4605040EA8E
:1008A000C100606000F03CF86168084AC1F30311C0
:1008B000515CC840064908600020FFF7CFFE0020C9
:1008C000C4E700000020024000100240EA50000887
:1008D0002000002001480068704700002000002030
:1008E0000448054900684968044AC1F30221515C83
:1008F000C84070472000002000100240FA50000855
:100900000448054900684968044AC1F3C221515CA2
:10091000C84070472000002000100240FA50000834
:1009200012A185B00FC98DE80F0014A0144A006809
:1009300004905168134801F00C03042B10D0082BCD
:100940000ED1C1F38343C9031DF803000AD55168D2
:1009500004AAC1F34041515C0A4A5043B0FBF1F094
:1009600005B0704708494843FAE700000203040550
:10097000060708090A0B0C0D0E0F101001020000EB
:100980000010024000127A0000093D002DE9F84FE6
:1009900004460078B94DC00748D06868C0F38100AC
:1009A000012807D06868C0F38100022809D168686F
:1009B000C00306D52868800338D5606800286FD04A
:1009C00034E06068B0F5803F0BD010B1B0F5A02FD7
:1009D00011D0286820F480302860286820F4802016
:1009E00002E0286840F480302860606888B1FFF732
:1009F00015FE064609E0286840F480202860F0E7EC
:100A0000FFF70CFE801B642875D828688003F7D593
:100A10000CE0FFF703FE064605E000BFFFF7FEFD12
:100A2000801B6428F0D828688003F7D42078944E7F
:100A300080074FF001094FF000083BD5686810F0BF
:100A40000C0F07D06868C0F38100022809D16868DC
:100A5000C00306D42868800714D5206901281FD157
:100A600010E02069B0B1C6F80090FFF7D7FD074647
:100A700005E000BFFFF7D2FDC01B0228C4D82868DC
:100A80008007F7D52868616920F0F80040EAC100C6
:100A900028600FE0C6F80080FFF7C0FD074606E0BB
:100AA000E9E000BFFFF7BAFDC01B022823D8286881
:100AB0008007F7D4207800072CD57248A169D9B1F6
:100AC000C0F80090FFF7AAFD074604E0FFF7A6FD77
:100AD000C01B02280FD8686A8007F7D56A484FF410
:100AE000FA510068B0FBF1F0009000BF0098411E81
:100AF0000091FAD20EE080E0C0F80080FFF78EFD92
:100B0000074604E0FFF78AFDC01B022875D8686A13
:100B10008007F7D42078400760D5E8690027C00037
:100B200008D4E86940F08050E861E869012700F0E6
:100B30008050009055480168C90513D40168834668
:100B400041F480710160FFF769FD824606E000BF55
:100B5000FFF764FDA0EB0A0064284ED8DBF8000024
:100B6000C005F5D5E06801280AD008B1052813D0E2
:100B7000286A20F001002862286A20F0040002E0C0
:100B8000286A40F001002862E06841F2883B98B191
:100B9000FFF744FD82460BE0286A40F0040028621B
:100BA000EEE700BFFFF73AFDA0EB0A0159455AD81E
:100BB000286A8007F6D50CE0FFF730FD824605E095
:100BC000FFF72CFDA0EB0A0159454CD8286A800795
:100BD000F6D41FB1E86920F08050E861E06988B37D
:100BE0006968C1F38101022945D00228C6F86080F6
:100BF00004D0FFF713FD044638E034E0FFF70EFDA4
:100C0000074604E0FFF70AFDC01B02282BD828681E
:100C10008001F7D4206AB0F5803F05D16868A168EB
:100C200020F4003008436860D4E90801084369688B
:100C300021F4741108436860C6F86090FFF7EEFC79
:100C4000044606E015E000BFFFF7E8FC001B0228A1
:100C500009D828688001F7D50BE000BFFFF7DEFC5C
:100C6000001B022802D90320BDE8F88F2868800104
:100C7000F4D40020F8E70120F6E70000001002405D
:100C800000004242800442422000002000700040E8
:100C900070B5040005D00025A56294F8510010B18C
:100CA00004E0012070BD204600F034F8022084F8F2
:100CB00051002068016821F040010160D4E9010180
:100CC0000843D4E903121143084361690843218BA7
:100CD00001F400710843E1690843216A0843A16AED
:100CE000084321680860A069042101EA1040616A94
:100CF0000843216848602168E06A08612068C1698A
:100D000021F40061C1616565012084F85100002073
:100D100070BD000000B500680C4985B0884212D152
:100D20000B48816941F4805181618069694600F412
:100D300080500490A0200090022001900320039096
:100D40000448FFF76DFB05B000BD00000030014016
:100D500000100240000801402DE9F84F044690F8C9
:100D600050000026994617460D4601280DD04FF039
:100D7000010B84F850B0FFF751FC804694F8510005
:100D8000B246012804D0022694E00220BDE8F88F84
:100D9000002D7BD0002F79D0032084F85100C4F8B7
:100DA00054A02563A786E786C4F838A0A4F83CA021
:100DB000A4F83EA0C4F844A0C4F840A0A068B0F5D0
:100DC000004F04D12068016841F48041016020682F
:100DD0000168490603D4016841F040010160E06800
:100DE000B0F5006F606804D030B3E08E012823D0E6
:100DF0003EE010B1E08E01281AD135F8021B2068C0
:100E000005E020688168890706D535F8021BC160B6
:100E1000E08E401EE0860BE0B9F1000F34D0B9F14E
:100E2000FF3F05D0FFF7FAFBA0EB080149452BD2A5
:100E3000E08E0028E5D11EE0216815F8010B08734B
:100E400006E020688168890706D515F8011B017343
:100E5000E08E401EE0860BE0B9F1000F14D0B9F12E
:100E6000FF3F05D0FFF7DAFBA0EB080149450BD2A5
:100E7000E08E0028E5D14B46012202212046CDF824
:100E8000008000F0E6FE10B1032613E011E04246B8
:100E90004946204600F0CDFE18B1012620206065AD
:100EA00008E0A06818B92068C16880680090606D8B
:100EB00000B1012684F851B084F850A0304665E7AF
:100EC0004FF0E0210428086903D020F004000861F5
:100ED000704740F00400FAE7704710B5401EB0F1CB
:100EE000807F01D3012010BD4FF0E02460610F210D
:100EF000601700F045F90020A06107202061002064
:100F000010BD10B5FFF7E8FF10BD70B5040004D0A8
:100F100094F83900002510B106E0012070BD84F876
:100F20003850204600F022F8242084F83900206848
:100F3000C16821F40051C160204600F035FF2068EF
:100F4000016921F4904101612068416921F02A0181
:100F500041612068C16841F40051C160E56320200F
:100F600084F8390084F83A00002070BD10B500689C
:100F7000114986B088421DD11048816941F48041F1
:100F8000816180690E4C00F4804004904FF4007041
:100F90000090022001900320039069462046FFF74D
:100FA0003FFA00212015CDE9000102916946204653
:100FB000FFF736FA06B010BD0038014000100240BD
:100FC000000801402DE9F843044690F839001F4617
:100FD00016460D46202850D1A5B19EB194F8380090
:100FE00001284AD0012084F838004FF00008C4F8E6
:100FF0003C80212084F83900FFF710FBA68481464D
:10100000E68426E00120BDE8F883E08C401EE08401
:10101000A0684B46B0F5805F4FF000024FF08001B2
:101020002046009703D000F077FFE8B90DE000F00C
:1010300073FFC8B928882168C0F308004860206998
:1010400008B16D1C05E0AD1C03E0216815F8010B2B
:101050004860E08C0028D8D14B4600224021204631
:10106000009700F059FF08B10320CCE7202084F856
:10107000390084F838800020C5E70220C3E7FEE786
:10108000124810B5816986B041F004018161806920
:101090000F4C00F004000490002216212046FFF7B8
:1010A000B8FA1620009001200190022003906946B2
:1010B0002046FFF7B5F900210820CDE90001029193
:1010C00069462046FFF7ACF906B010BD001002409B
:1010D00000080140114810B50F4901604FF48271BA
:1010E000416000218160C1604FF400720161C0E97C
:1010F00005122822C0E90721416281620A21C162EA
:10110000FFF7C6FD002805D0BDE81040272104A048
:1011100000F035BF10BD0000003001404800002045
:101120002E2E2F5372632F7370692E630000000000
:101130000D4810B50B4901604FF4E13141600021C9
:1011400081600C22C160C0E904128161C161FFF7B6
:10115000DCFE002805D0BDE81040242103A000F0EB
:101160000EBF10BD00380140A00000202E2E2F53CE
:1011700072632F75736172742E630000FEE770470F
:101180000907090E002806DA00F00F0000F1E02040
:1011900080F8141D704700F1E02080F800147047BB
:1011A00030B500210A4AC3B20DE0002006E000BFBE
:1011B00001FB04041568401C80B22B55548A8442FC
:1011C000F6D8491C89B2908A8842EED830BD00001A
:1011D0003000002070B50022094B0DE0002106E030
:1011E00002FB04141E68055D491C355589B25C8AF2
:1011F0008C42F5D8521C92B2998A9142EED870BDB9
:10120000300000202DE9F05F81462A481E46DDF8B7
:1012100028B0838888464B4502D3C188414504D213
:10122000BDE8F05F24A000F0ABBEB088410700D05D
:10123000012101EBD000203AF18850434843316846
:101240004FF0800A0F1800252FE0002424E000BF93
:10125000BBF1FF0F3A7804F007012AFA01F002EA25
:10126000000201D00AB908E082B108EB050081B2A2
:1012700009EB040080B20B9A06E008EB050081B28E
:1012800009EB040080B25A4600F06AFCE0434007D4
:1012900000D17F1C641CA4B2B088A042D8D8307999
:1012A000400700D07F1C6D1CADB2F088A842CCD89E
:1012B000BDE8F09F3000002044656275673A205019
:1012C00061696E745F447261774368617220496E30
:1012D0007075742065786365656473207468652033
:1012E0006E6F726D616C20646973706C61792072CD
:1012F000616E67650D0A00002DE9FF4F8046834847
:1013000085B00F4684881299444502D3C088B842FC
:1013100005D809B07E48BDE8F04F00F031BE03208B
:101320000024A0EB420015B20FFA80FA01297AD00E
:10133000E9E0264661E000BF4FF0010908EB040038
:1013400007EB060B02901FFA8BF1CDF8009080B2EC
:101350004B46089A00F0CEF9A8EB040004901FFA5F
:101360008BF1CDF8009080B20123089A00F0C2F909
:101370003819CDE9009081B2A8EB060B1FFA8BF06B
:101380000123089A00F0B6F9381B039081B2CDF81A
:1013900000901FFA8BF00123089A00F0ABF9049833
:1013A000A7EB060B1FFA8BF1CDF8009080B201235A
:1013B000089A00F09FF902981FFA8BF1CDF800907F
:1013C00080B20123089A00F095F9039808EB060B08
:1013D00081B2CDF800901FFA8BF00123089A00F03B
:1013E00089F90198CDF8009081B21FFA8BF00123A2
:1013F000089A00F07FF9761C36B2AE429CDDBAF155
:10140000000F06DA0AEB8400801D0FFA80FA08E06C
:1014100009E0611B0AEB81000A306D1E0FFA80FAA9
:101420002DB2641C24B2AC4283DD09B0BDE8F08F5C
:1014300008EB0400012607EB050902901FFA89F169
:10144000009680B2139B089A00F054F9A8EB0400B0
:1014500003901FFA89F1009680B2139B089A00F05E
:1014600049F93819CDE9006081B2A8EB05091FFAE6
:1014700089F0139B089A00F03DF9A7EB040B1FFAC3
:101480008BF11FFA89F00096139B089A00F032F94D
:101490000398A7EB05091FFA89F1009680B2139B08
:1014A000089A00F027F902981FFA89F1009680B295
:1014B000139B089A00F01EF908EB05091FFA8BF13F
:1014C0001FFA89F00096139B089A00F013F901980F
:1014D000009681B21FFA89F0139B089A00F00AF96E
:1014E000BAF1000F05DA0AEB8400801D0FFA80FACA
:1014F00007E0611B0AEB81000A306D1E0FFA80FACB
:101500002DB2641C24B2AC4292DD8EE73000002084
:10151000485100082DE9FE4F1D46304B16469A886B
:10152000824206D3DB888B4203D3B24201D3AB4263
:1015300004D2BDE8FE4F2AA000F022BD83468A46B1
:10154000321A00D5821B91466A1A002A00DD4A1B16
:1015500090464FF0FF32B34501D2012000E0104623
:101560000290AA4500D2012209EB0804002701924B
:101570007F1C0D98FFB2012805D10320B7FBF0F1C5
:1015800000FB1170F0B101200090514658460E9BAF
:101590000C9A00F0AFF800BFB8EB440F06DCB3457F
:1015A0001AD00298444458441FFA80FBB9EB440F08
:1015B000DEDBAA4510D001994C440AEB01001FFA6A
:1015C00080FAD5E701200090FF22514658460E9B35
:1015D00000F090F80027DFE7BDE8FE8F3000002024
:1015E00044656275673A205061696E745F44726148
:1015F000774C696E6520496E7075742065786365F7
:1016000065647320746865206E6F726D616C206410
:101610006973706C61792072616E67650D0A0000F4
:101620002DE9FF4FADF5037D8846DDE990BA81468F
:1016300000244FF4807715462646394642A8FEF727
:101640009AFD394602A8FEF796FD194842AA8388FA
:101650004B4503D3C38802A8434512D215A000F01E
:101660008FFC0DF5077DBDE8F08F00BF95FBF1F312
:1016700001FB135395FBF1F530330355641C24B281
:1016800000E00A21002DF1D11146002C08DD0319DC
:1016900013F8013C8B55761C641E36B224B2F4E775
:1016A000CDE900BA41464846869B00F0CBF9D8E721
:1016B0003000002044656275673A205061696E749D
:1016C0005F4469734E756D20496E7075742065783E
:1016D000636565647320746865206E6F726D616CFC
:1016E00020646973706C61792072616E67650D0AA0
:1016F000000000002DE9F05F814626481C46884620
:1017000083880A9993464B4502D3C288424504D246
:10171000BDE8F05F20A000F033BC012901D0002615
:1017200034E00025681E00EB440718E009EB0500D3
:101730000026A0EB040A0EE0BAF1000F0DD408EB6E
:101740000600001B09D481B21FFA8AF05A4600F045
:1017500007FA761C36B2B742EEDC6D1C2DB2AF42F2
:10176000E4DCBDE8F09F002509EB06077F1E09E0D9
:1017700008EB0500401E81B2B8B25A4600F0F0F9FD
:101780006D1C2DB2A542F3DB761C36B2A642EADB15
:10179000E7E700003000002044656275673A20509A
:1017A00061696E745F44726177506F696E7420492D
:1017B0006E70757420657863656564732074686500
:1017C000206E6F726D616C20646973706C6179203A
:1017D00072616E67650D0A002DE9FE4F824627484B
:1017E00091460C46DDE90D2581880C9E1F4651452A
:1017F00006D3C088A04203D3494501D3B84204D2DE
:10180000BDE8FE4F1EA000F0BBBB002080465AB9C9
:101810000EE00096CDE9018523464A46194650461A
:10182000FFF778FE641CA4B2BC42F2D3BDE8FE8F81
:101830000096CDE9018523464A4619465046FFF7F2
:1018400069FE0096CDE9018552463B462146104689
:10185000FFF760FE0096CDE901854A4623463946EA
:101860001046FFF757FE0096CDE901853B465246EC
:1018700019464846FFF74EFED8E70000300000202A
:1018800044656275673A20496E70757420657863A7
:101890006565647320746865206E6F726D616C207D
:1018A000646973706C61792072616E67650D0A00FE
:1018B0002DE9F05F1D46904606468A46DDF828B0C1
:1018C000B6E07F294FF0000054D8AA884CE053239B
:1018D0002C68434314F813308B4244D153214843BE
:1018E000022101EB400004EB0009002737E000244F
:1018F0002CE000BF4FEAE47004EB507020F00700CA
:10190000A4EB0002BBF1FF0F99F800104FF080002C
:1019100020FA02F001EA000101D009B907E071B133
:101920000AEB070081B2301980B20B9A05E00AEB8E
:10193000070081B2301980B25A4600F011F94048D0
:101940002040072801D109F10109641C2889A0421F
:10195000D0DC287A400701D009F101097F1C688991
:10196000B842C4DC02E0401C8242B0DC08F101084D
:10197000E8885CE00127AB8854E053222C6842439E
:1019800014F812C08C454CD107EB4202A45C98F8C5
:101990000120944245D1532250430222296802EB90
:1019A000400001EB0009002737E000242CE000BFD5
:1019B0004FEAE47004EB507020F00700A4EB000243
:1019C000BBF1FF0F99F800104FF0800020FA02F0F1
:1019D00001EA000101D009B907E071B10AEB070083
:1019E00081B2301980B20B9A05E00AEB070081B290
:1019F000301980B25A4600F0B3F811482040072849
:101A000001D109F10109641C2889A042D0DC287A9F
:101A1000400701D009F101097F1C6889B842C4DC84
:101A200002E0401C8342A8DC288908F10208064431
:101A300098F8001000297FF444AFBDE8F09F000043
:101A4000070000802DE9FC5F80461B4889460D4653
:101A500081884446DDF834B01E461746A14203D3C0
:101A6000C1888246A94222D2BDE8FC5F134800F03B
:101A700087BAB088BAF804300119994203D9F188BD
:101A8000444629448DB2F188BAF8060029448142BF
:101A900001D944464D460C99CDE9001B33462946F1
:101AA0002046FFF7AFFBB0887F1C204484B23A7811
:101AB000002ADED1BDE8FC9F300000200451000860
:101AC0002DE9F041134C0E46069920602681628173
:101AD000A1811F4615464FF0000870074FEAD60156
:101AE00000D0491C6182A5822A460BA000F048FA6A
:101AF0000F2112A000F044FAE781A4F810802FB162
:101B0000B42F03D0A580E680BDE8F081A680E580F3
:101B1000FAE7000030000020576964746842797465
:101B200065203D2025642C204865696768744279EA
:101B30007465203D2025640D0A00000020455044B6
:101B40005F5749445448202F2038203D2025640DFC
:101B50000A000000014908607047000030000020C2
:101B6000F0B4284CA388834234D3E3888B4231D32A
:101B70002346E7891E895D89CFB15A2F1AD0B42F29
:101B80001CD0B7F5877F38D10B46281A401E80B28B
:101B9000218AD9B1012916D0022904D003292CD1D8
:101BA000F11A491E8BB2281A401E80B20EE003467D
:101BB0000846EDE7711A491E8BB2E9E7301A401E5C
:101BC00083B2681AE2E7F11A491E8BB29E4201D332
:101BD000854203D2F0BC0CA000F0D2B9618A414327
:101BE00001EBD30521688020002A4C5D03F0070239
:101BF00020FA02F003D020434855F0BC70478443DC
:101C00004C55FAE73000002044656275673A20457C
:101C10007863656564696E6720646973706C617967
:101C200020626F756E6461726965730D0A00000051
:101C3000704738B50B46009204460022802100F020
:101C400008F8002804D0606D40F020006065032093
:101C500038BD2DE9F0411D4617460E460446DDF815
:101C6000188035E0681C33D02DB1FEF7D7FCA0EB0F
:101C70000800A8422CD32068416821F0E0014160AF
:101C80006068B0F5827F0BD1A068B0F5004F02D03C
:101C9000B0F5806F04D12068016821F04001016037
:101CA000A06AB0F5005F0AD1206801684DF6FF72A6
:101CB000114001602068016841F400510160012079
:101CC00084F85100002084F850000320BDE8F08122
:101CD0002068806836EA000004D00020B842C1D1F4
:101CE0000020F3E70120F9E7704710B5FEF79CFCF0
:101CF000BDE81040FFF705B930B58FB001210804E9
:101D0000CDE900100024029402250491CDE907508A
:101D10004FF4E01009906846FEF738FE00B1FEE788
:101D20000F20CDE90A054FF48060CDE90C40022177
:101D30000AA80E94FEF724FD00B1FEE7FEF7CAFDE7
:101D40004FF47A71B0FBF1F0FFF7C7F80420FFF70A
:101D5000B7F800221146501EFEF7E0FC0FB030BD70
:101D60000D48016841F00101016041680B4A1140D2
:101D7000416001680A4A11400160016821F4802134
:101D80000160416821F4FE0141604FF41F01816050
:101D90000449C00308607047001002400000FFF8CB
:101DA000FFFFF6FE08ED00E02DE9F0410446006873
:101DB0000169E26821F44051114301612169A06881
:101DC0000843616908432168CA6841F20C639A4379
:101DD0000243CA6020684169A26921F4407111433D
:101DE00041614C4920686425322688423CD1FEF787
:101DF00087FD00EBC00101EB001061688900B0FBBA
:101E0000F1F7FEF77DFD00EBC00101EB001061680A
:101E1000B0468900B0FBF1F0B0FBF5F06FF01801AF
:101E2000484307EB800106EB0110B0FBF5F000F032
:101E3000F006FEF765FD00EBC00101EB00106168E4
:101E40008900B0FBF1F0B0FBF5F006EB0016FEF7F1
:101E500057FD00EBC00101EB001061688900B0FB89
:101E6000F1F7FEF74DFD3BE0FEF73AFD00EBC00158
:101E700001EB001061688900B0FBF1F7FEF730FD5F
:101E800000EBC00101EB00106168B0468900B0FBB7
:101E9000F1F0B0FBF5F06FF01801484307EB80015B
:101EA00006EB0110B0FBF5F000F0F006FEF718FDB0
:101EB00000EBC00101EB001061688900B0FBF1F09C
:101EC000B0FBF5F006EB0016FEF70AFD00EBC001D3
:101ED00001EB001061688900B0FBF1F7FEF700FD2F
:101EE00000EBC00101EB001061688900B0FBF1F06C
:101EF000B0FBF5F06FF01801484307EB800108EBE9
:101F00000110B0FBF5F0216800F00F00304488604C
:101F1000BDE8F081003801402DE9F04198461746B0
:101F20000E460446069D1DE0681C1BD02DB1FEF731
:101F300075FBA0EB0800A84214D92068C16821F401
:101F4000D071C1602068416921F001014161202008
:101F500084F8390084F83A00002084F8380003201F
:101F6000BDE8F0812068006836EA000004D0002057
:101F7000B842D9D00020F3E70120F9E7FEE7FEE7F9
:101F80000FB4054B10B503A9044A029800F018F8E5
:101F900010BC5DF814FB000079210008240000202B
:101FA00002E008C8121F08C1002AFAD17047704722
:101FB000002001E001C1121F002AFBD17047000080
:101FC0002DE9FF4F8BB09A460F460546002606E0E6
:101FD00025280BD052460D9990476D1C761C287809
:101FE0000028F5D10FB03046BDE8F08F0024A046A0
:101FF0000122604900E0044315F8013F203B02FA4A
:1020000003F00842F7D128782E2817D115F8010FD0
:1020100044F004042A280ED06FF02F022878A0F193
:10202000300109290AD808EB880102EB410100EBD5
:1020300001086D1CF2E757F8048B6D1C287869289D
:102040003ED006DC0028CDD063280BD0642804D114
:1020500036E0732810D075284BD052460D99904722
:10206000761C85E017F8040B8DF8000000208DF831
:102070000100E946012003E057F8049B4FF0FF30D0
:1020800061074FF0000401D40AE0641C44450DDAF6
:102090008442FADB19F804100029F6D106E0641C2A
:1020A0008442FCDB19F804100029F8D1264404E02E
:1020B00019F8010B52460D999047641EF8D257E06B
:1020C00001CF4FF00A0B002802DA40422D2102E036
:1020D000210504D52B218DF82410012103E0E1070F
:1020E00005D02021F7E70DF1200908910CE000212F
:1020F000F9E701CF4FF00A0BF9E75946FEF746F82A
:1021000001F1300209F8012D0028F6D1ADEB0900EC
:1021100000F1200B600701D44FF00108D84502DD23
:10212000A8EB0B0000E000208046002406E009A890
:102130005246005D0D999047641C761C08988442B5
:10214000F5DB04E0302052460D999047761CB8F13B
:102150000001A8F10108F5DC05E019F8010B524671
:102160000D999047761CBBF10001ABF1010BF4DC3B
:102170006D1C34E70928010013B54FF6FF730122E7
:1021800069460248FEF71EFF00981CBDA000002013
:1021900010B5002821D0114B0022001F196803E060
:1021A000814203D80A4649680029F9D152B113681F
:1021B000841A9C4204D1006818441060104602E062
:1021C000506000E0186039B102680B1A934203D1E5
:1021D0000B681A4402604968416010BD2800002065
:1021E0002DE9FE43FEF728FAFFF786FDFEF748FFCC
:1021F000FEF79EFFFEF76EFF7EA0FFF7C1FEFEF723
:102200005DF810B187A0FFF7BBFEFDF7F6FFC82011
:10221000FEF7F4F840F64830044600F091F95FEA22
:1022200000094FF0FF357DD0204600F089F9070006
:1022300079D082A0FFF7A4FEFF264FF4877498227E
:102240002346114648460096FFF73AFC982223465B
:10225000114638460096FFF733FC4846FFF77AFCF4
:10226000FF20FEF79DFF3846FFF774FCFF20FEF7C6
:1022700097FF7BA0FFF784FE4846FFF76BFC84487E
:10228000FEF7A8FF3846FFF765FC8248FEF7A2FF7D
:1022900039464846FDF7DCFF4FF4FA684046FEF742
:1022A000ADF87DA0FFF76CFE4846FFF753FCFF201A
:1022B000FEF776FF0124234600220A210520009420
:1022C000FFF718FA02230022192105200094FFF7D6
:1022D00011FA00250095CDE901543C2346220A213C
:1022E0001420FFF717F90095CDE901543C2314227F
:1022F0000A214620FFF70EF90095CDE901543C2351
:1023000046220A211420FFF767FACDE900543C2346
:1023100082220A2155200294FFF75EFA3846FFF721
:1023200019FC01E05EE05FE0FF20FEF739FF0323C8
:102330000022282105200094FFF7DCF90423002265
:10234000372105200094FFF7D5F9CDE90054AA22E2
:1023500037230F2110460294FFF7DCF8CDE9005433
:102360002323BE22194696200294FFF7D3F8CDE925
:10237000005400230F2223212D20FEF7BDFF0094DF
:1023800000230F221E2169200194FEF7B5FFCDE93D
:1023900000564A4B4AA246210520FFF753FBCDE9E0
:1023A0000056464B494A5F210520FFF739F9CDE930
:1023B0000056474B47A278210520FFF779FA3946A6
:1023C0004846FDF745FF4046FEF718F843A0FFF7E3
:1023D000D7FDFDF7F1FF4846FFF7DAFE3846FFF775
:1023E000D7FEFEE743A000E04CA0FFF7C9FD28465A
:1023F000BDE8FE8365706420696E697420616E6457
:1024000020636C6561722D2D2D2D2D2D2D2D2D2DE3
:102410002D2D2D2D2D2D2D2D2D2D2D2D2D2D0D0A2F
:1024200000000000652D506170657220696E69744E
:10243000206661696C65640D0A0000004E6577498D
:102440006D6167653A426C61636B496D61676520D8
:10245000616E6420526564496D6167650D0A000014
:1024600073686F7720696D61676520666F722061A0
:10247000727261792D2D2D2D2D2D2D2D2D2D2D2D82
:102480002D2D2D2D2D2D2D2D2D2D2D2D0D0A000019
:10249000AC250008F430000844726177696E672D3E
:1024A0002D2D2D2D2D2D2D2D2D2D2D2D2D2D2D2D5C
:1024B0002D2D2D2D2D2D2D0D0A0000000C0000209E
:1024C00077617665736861726500000015CD5B0702
:1024D00000000020C4E3BAC361626300476F746FF9
:1024E00020536C656570206D6F64652E2E2E0D0A6D
:1024F000000000004661696C656420746F206170A3
:10250000706C7920666F7220626C61636B206D6500
:102510006D6F72792E2E2E0D0A0000004661696CD7
:10252000656420746F206170706C7920666F722012
:10253000726564206D656D6F72792E2E2E0D0A0006
:10254000F0B50B30154D20F007010024144A0FE0C0
:1025500003688B420BD38B4205D95E1A4318476838
:10256000C3E9006700E04368136002C004E0021D95
:1025700010680028ECD12046002802D1286808B154
:102580000020F0BD064A07481060074A121A22F0E0
:102590000702C0E9002401202860D7E72C000020B2
:1025A00028000020E4000020E0900020FFFFFFFF53
:1025B000FFFFFFFFFFFFFFFFBFFFFFFFFFFFFFFF6B
:1025C000FFFFFFFFFFFFFFFFFFFFFFBFFFFFFFFF5B
:1025D000FFFFFFFFFFFFFFFFFFFFFFFFFFFFBFFF4B
:1025E000FFFFFFFFFFFFFFFFFFFFFFFFFFFFFFFFFB
:1025F000FFBFFFFFFFFFFFFFFFFFFFFFFFFFFFFF2B
:10260000FFFFFFFFDFFFFFFFFFFFFFFFFFFFFFFFFA
:10261000FFFFFFFFFFFFFFDFFFFFFFFFFFFFFFFFEA
:10262000FFFFFFFFFFFFFFFFFFFFDFFFFFFFFFFFDA
:10263000FFFFFFFFFFFFFFFFFFFFFFFFFFDFFFFFCA
:10264000FFFFFFFFFFFFFFFFFFFFFFFFFFFFFFFF9A
:10265000DFFFFFFFFFFFFFFFFFFFFFFFFFFFFFFFAA
:10266000FFFFFFDFFFFFFFFFFFFFFFFFFFFFFFFF9A
:10267000FFFFFFFFFFFFDFFFFFFFFFFFFFFFFFFF8A
:10268000FFFFFFFFFFFFFFFFFFDFFFFFFFFFFFFF7A
:10269000FFFFFFFFFFFFFFFFFFFFFFFFDFFFFFFF6A
:1026A000FFFFFFFF00000FFFFFFFFFFFFFFFFFDF48
:1026B000FFFFFFFFFFFFFE00000FFFFFFFFFFFFF19
:1026C000FFFFEFFFFFFFFFFFFFFE000007FFFFFF21
:1026D000FFFFFFFFFFEFFFFFFFFFFFFFFE00000711
:1026E000FFFFFFFFFFFFFFFFEFFFFFFFFFFFFFFC0D
:1026F000000007FFFFFFFFFFFFFFFFEFFFFFFFFFF0
:10270000FFFFFC000007FFFDFFCFFFFFFFFFEFFF14
:10271000FFFFFFFFFFFC000003FFF87F87FFFFFFC5
:10272000FFEFFFFFFFFFFFFFFC000003FFF8FFC705
:10273000FFFFFFFFEFFFFFFFFFFFFFFC007803FF3E
:10274000F8FFE7FFFFFFFFEFFFFFFFF5FFFFFC00D4
:10275000FB83FFF9FFE3FFFFFFFFEFFFFFFF803F7A
:10276000FFFC01F9C3FFF8FFE3FFFFFFFFEFFFFFEF
:10277000FE001FFFF801D9C3FFF8FFC7FFFFFFFFEF
:10278000F7FFFFFC000FFFF801D9C3FFF87F87FFB9
:10279000FFFFFFF7FFFFFC0004FFF801D9C3FFFCB8
:1027A0003F07FFFFFFFFF7FFFFF80000FFF801DB27
:1027B000C1FFFC000FFFFFFFFFF7FFFFF00001FF6D
:1027C000F800FF81FFFE001FFFFFFFFFF7FFFFF094
:1027D0006001FFF8007F81FFFF807FFFFFFFFFF7B1
:1027E000FFFFF06001FFF8003E01FFFFFFFFFFFF6A
:1027F000FFFFF7FFFFE00001FFF8000001FFFEFF11
:10280000FFFFFFFFFFF7FFFFE00001FFF801C0013E
:10281000FFF83FFFFFFFFFFFF7FFFF200001FFF87A
:1028200001C001FFF19FFFFFFFFFFFF7FFFE200048
:1028300001FFF801C001FFF39FFFFFFFFFFFFBFF58
:10284000F8200001FFF800E001FFF39FFFFFFFFF0A
:10285000FFFBFFF0306001FFF801FFC1FFF19FFFB8
:10286000FFFFFFFFFBFFF0107001FFF801FFC1FF4A
:10287000F83FFFFFFFFFFFFBFFE0106003FFF801E1
:10288000FFC1FFFEFFFFFFFFFFFFFBFFC0100003C4
:10289000FFF8000001FFFFFFFFFFFFFFFFFBFFC18D
:1028A000C80003FFF8000001FFFFC0FFFFFFFFFFAC
:1028B000FBFFC1C40007FFF8000001FFFE001FFF7F
:1028C000FFFFFFFBFF81C4000FFFF8007FC1FFFC8B
:1028D000000FFFFFFFFFFBFF8082001FFFF800FFDC
:1028E000C1FFF83307FFFFFFFFFBFF8001803FFFC1
:1028F000F801FFC1FFF8F1C7FFFFFFFFFDFF8000F8
:1029000061FFFFF801D981FFF9F9E3FFFFFFFFFD48
:10291000FF80000EFFFFF801D9C1FFF9F9E3FFFFC7
:10292000FFFFFDFF8000007FFFF801D9C1FFF8F134
:10293000E3FFFFFFFFFDFF800000FFFFF801D9C1AB
:10294000FFF801C7FFFFFFFFFDFF808000FFFFF8DA
:1029500001DFC1FFFC03C7FFFFFFFFFDFF81C000D8
:10296000FFFFF800CFC1FFFE07EFFFFFFFFFFDFFF6
:10297000C1C000FFFFF8000781FFFFFFFFFFFFFF5F
:10298000FFFDFFC1C000FFFFF8000001FFFFFFFFD8
:10299000FFFFFFFFFDFFC000007FFFF8000001FF09
:1029A000FFFFE7FFFFFFFFFDFFE000007FFFF800F4
:1029B0007FC1FFFE0FC7FFFFFFFFFDFFF000023FDB
:1029C000FFF800FFC1FFFC03C7FFFFFFFFFEFFF0A2
:1029D0000007FFFFF801FFC1FFF800C7FFFFFFFF7F
:1029E000FEFFF8000FFFFFF801E001FFF8F067FFBE
:1029F000FFFFFFFEFFFE001FFFFFF801C001FFF910
:102A0000F827FFFFFFFFFEFFFF007FFFFFF801C079
:102A100001FFF9FE07FFFFFFFFFEFFFFFFFFFFFFC4
:102A2000F800C001FFF9FF07FFFFFFFFFEFFFFFFF8
:102A3000FFFFFFF8006001FFF8FF87FFFFFFFFFEC9
:102A4000FFFFFFFFFFFFF87FFFC1FFFC7FC7FFFF16
:102A5000FFFFFEFFFFFFFFFFFFF87FFFC1FFFCFF4F
:102A6000E7FFFFFFFFFEFFFFFFFFFFFFF87FFFC154
:102A7000FFFFFFFFFFFFFFFFFEFFFFFFFFFFFFF86E
:102A8000000001FFFFFFFFFFFFFFFFFF7FFFFFFFD2
:102A9000FFFFF8000001FFFFF7FFFFFFFFFFFF7FD1
:102AA000FFFFFFFFFFF8000001FFFFE3FFFFFFFF55
:102AB000FFFF7FFFFFFFFFFFF8000001FFFFE1FFC7
:102AC000FFFFFFFFFF7FFFFFFFFFFFF8000F01FF8A
:102AD000FFF0FFFFFFFFFFFF7FFFFF0FFFFFF83C4F
:102AE0003F81FFFFF8FFFFFFFFFFFF7FFFFCF3FFCA
:102AF000FFF8383F81FFFFFCFFFFFFFFFFFF7FFF75
:102B0000F3FDFFFFF83873C1FFFFF8FFFFFFFFFF82
:102B1000FF7FFFEFFEFFFFF83871C1FFFFF8FFFFF7
:102B2000FFFFFFFF7FFFDFFF7FFFF838E1C1FFFFFF
:102B3000F0FFFFFFFFFFFF7FFFBFFFBFFFF83CE19C
:102B4000C1FFFFE1FFFFFFFFFFFFBFFFBFFFBFFFB1
:102B5000F81FC1C1FFFFE3FFFFFFFFFFFFBFFF7FC4
:102B6000FFDFFFF81FC3C1FFFFC7FFFFFFFFFFFF2E
:102B7000BFFF7FFFDFFFF80F8781FFFFC7FFFFFF6A
:102B8000FFFFFFBFFEFFFFEFFFF8000001FFFFCFD9
:102B9000FFFFFFFFFFFFBFFEFFFFEFFFF800000199
:102BA000FFFF8FFFFFFFFFFFFFBFFDFF81F7FFF874
:102BB000007801FFFFC7FFFFFFFFFFFFBFFDFF0121
:102BC000F7FFF800FB81FFFFC7FFFFFFFFFFFFBF1D
:102BD000FBFF3FFBFFF801F9C1FFFFC3FFFFFFFF52
:102BE000FFFFBFFBFFBFFBFFF801D9C1FFFFE1FF04
:102BF000FFFFFFFFFFBFFBF801FBFFF801D9C1FF9B
:102C0000FFF3FFFFFFFFFFFFDFF7F801FBFFF80116
:102C1000D9C1FFFFFFFFFFFFFFFFFFDFF7FFFFFD52
:102C2000FFF801DBC1FFFFFFFFFFFFFFFFFFDFF743
:102C3000FF31FDFFF800FF81FFFFFE3FFFFFFFFFB9
:102C4000FFDFF7FF39FDFFF8007F81FFFE1C0FFF5C
:102C5000FFFFFFFFDFF7FF39FDFFF8003E01FFFC3C
:102C60000807FFFFFFFFFFDFEFFF19FEFFF800007F
:102C700001FFF80087FFFFFFFFFFDFEFFF83FEFF8D
:102C8000F8010001FFF8E1C7FFFFFFFFFFDFEFFFE3
:102C9000C7FEFFF801E001FFF9E3E3FFFFFFFFFFDD
:102CA000DFEFFFFFFEFFF801F801FFF9F3E3FFFF9D
:102CB000FFFFFFDFEFFFFFFEFFF801FF01FFF9F36A
:102CC000E7FFFFFFFFFFEFEFFF81FEFFF8001FC1EF
:102CD000FFF8FFC7FFFFFFFFFFEFDFFF01FEFFF879
:102CE0000003C1FFFCFF87FFFFFFFFFFEFDFFF3F98
:102CF000FF7FF80003C1FFFDFFCFFFFFFFFFFFEFE6
:102D0000DFFFBFFF7FF8003FC1FFFFFFFFFFFFFFB7
:102D1000FFFFEFDFFF01FF7FF801FF81FFFFFFFFF4
:102D2000FFFFFFFFFFEFDFFF01FF7FF801FC01FF67
:102D3000FFFFC7FFFFFFFFFFEFDFFFFFFF7FF80190
:102D4000E001FFFE07C7FFFFFFFFFFEFDFFFFFFF11
:102D50007FF8010001FFFC03C7FFFFFFFFFFEFDF6C
:102D6000F901FF7FF8000001FFF800C7FFFFFFFF38
:102D7000FFEFDFF901FF7FF8007FC1FFF8F067FF89
:102D8000FFFFFFFFEFDFFFFFFF7FF800FFC1FFF94D
:102D9000FC27FFFFFFFFFFF7DFFFEFFF7FF801FFDB
:102DA000C1FFF9FE07FFFFFFFFFFF7DFF801FF7F1D
:102DB000F801D981FFF9FF07FFFFFFFFFFF7DFF8F9
:102DC00001FF7FF801D9C1FFF8FF87FFFFFFFFFF79
:102DD000F7DFFCEFFF7FF801D9C1FFFC7FC7FFFFE2
:102DE000FFFFFFF7DFFE6FFF7FF801D9C1FFFCFF98
:102DF000E7FFFFFFFFFFF7DFFF2FFF7FF801DFC1D6
:102E0000FFFFFFFFFFFFFFFFFFF7DFFFCFFF7FF8B1
:102E100000CFC1FFFFFFFFFFFFFFFFFFF7DFFFEF67
:102E2000FEFFF8000781FFFFFFFFFFFFFFFFFFF737
:102E3000EFFFFFFEFFF8000001FFFFFFFFFFFFFFB6
:102E4000FFFFF7EFF9C3FEFFF8380001FFFFFFFFB8
:102E5000FFFFFFFFFFFBEFF983FEFFF83F0001FFDD
:102E6000FFEFFFFFFFFFFFFFFBEFF999FEFFF83FCA
:102E7000F001FFFFCFFFFFFFFFFFFFFBEFF999FE20
:102E8000FFF807FF01FFFFCFFFFFFFFFFFFFFBEF93
:102E9000F819FEFFF800FFC1FFBFEFF3FFFFFFFFD0
:102EA000FFFBF7F81BFDFFF8000FC1FF8FFFE3FFEB
:102EB000FFFFFFFFFBF7FFFFFDFFF8000FC1FFCF94
:102EC00003E7FFFFFFFFFFFBF7FFFFFDFFF800FF3A
:102ED000C1FFFC00FFFFFFFFFFFFFBF7FFF9FDFF56
:102EE000F80FFF01FFF8003FFFFFFFFFFFFBF7FFB9
:102EF000F9FBFFF83FF001FFF0003FFFFFFFFFFF8E
:102F0000FBFBFFFFFBFFF83F0001FFF0001FFFFF8F
:102F1000FFFFFFFDFBFFFFFBFFF83F0001FFE000AD
:102F20000FFFFFFFFFFFFDFBFFFFF7FFF83FF00381
:102F3000FFE0000FFFFFFFFFFFFDFDFFFFF7FFF8C2
:102F400007FE03FFE0000FFFFFFFFFFFFDFDF8019D
:102F5000F7FFF8007FC3FC40000C7FFFFFFFFFFD81
:102F6000FEF801EFFFF8000FC3FC40000C7FFFFFED
:102F7000FFFFFDFEFDFFEFFFFC000FC3FFE0000FB2
:102F8000FFFFFFFFFFFDFF7CFFDFFFFC00FFC3FF34
:102F9000E0000FFFFFFFFFFFFDFF7FFFDFFFFC1FD4
:102FA000FFC3FFE0001FFFFFFFFFFFFDFFBFFFBFED
:102FB000FFFC3FFC03FFF0001FFFFFFFFFFFFDFFD3
:102FC000BFFFBFFFFC3FE003FFF8003FFFFFFFFF35
:102FD000FFFEFFDFFF7FFFFC3E0007FFFC007FFFDF
:102FE000FFFFFFFFFEFFEFFEFFFFFE300007FFDEEB
:102FF00000F7FFFFFFFFFFFEFFF7FDFFFFFE0000F2
:1030000007FF8FC7E3FFFFFFFFFFFEFFF8F3FFFFA0
:10301000FE00000FFF9FFFF3FFFFFFFFFFFEFFFF1C
:103020000FFFFFFF00000FFFBFCFFFFFFFFFFFFFFE
:10303000FEFFFFFFFFFFFFFFFFFFFFFFCFFFFFFFD1
:10304000FFFFFFFEFFFFFFFFFFFFFFFFFFFFFFCFC1
:10305000FFFFFFFFFFFFFEFFFFFFFFFFFFFFFFFF81
:10306000FFFFFFFFFFFFFFFFFFFEFFFFFFFFFFFF71
:10307000FFFFFFFFFFFFFFFFFFFFFFFFFF7FFFFFE0
:10308000FFFFFFFFFFFFFFFFFFFFFFFFFFFFFFFF50
:103090007FFFFFFFFFFFFFFFFFFFFFFFFFFFFFFFC0
:1030A000FFFFFF7FFFFFFFFFFFFFFFFFFFFFFFFFB0
:1030B000FFFFFFFFFFFF7FFFFFFFFFFFFFFFFFFFA0
:1030C000FFFFFFFFFFFFFFFFFF7FFFFFFFFFFFFF90
:1030D000FFFFFFFFFFFFFFFFFFFFFFFF7FFFFFFF80
:1030E000FFFFFFFFFFFFFFFFFFFFFFFFFFFFFF7F70
:1030F000FFFFFFFFFFFFFFFFFFFFFFFFFFFFFFFFE0
:10310000C0000000000000FFFFFFFFFFFFFFFFFF08
:10311000FFFFFFC0000000000000FFFFFFFFFFFFF8
:10312000FFFFFFFFFFFFC0000000000000FFFFFFE8
:10313000FFFFFFFFFFFFFFFFFFC0000000000000D8
:10314000FFFFFFFFFFFFFFFFFFFFFFFFE0000000AB
:10315000000000FFFFFFFFFFFFFFFFFFFFFFFFE09B
:10316000000000000000FFFFFFFFFFFFFFFFFFFF69
:10317000FFFFE0000000000000FFFFFFFFFFFFFF78
:10318000FFFFFFFFFFE0000000000000FFFFFFFF68
:10319000FFFFFFFFFFFFFFFFE0000000000000FF58
:1031A000FFFFFFFFFFFFFFFFFFFFFFE0000000004A
:1031B0000000FFFFFFFFFFFFFFFFFFFFFFFFE0003B
:1031C0000000000000FFFFFFFFFFFFFFFFFFFFFF0A
:1031D000FFE0000000000000FFFFFFFFFFFFFFFF18
:1031E000FFFFFFFFE0000000000000FFFFFFFFFF08
:1031F000FFFFFFFFFFFFFFE0000000000000FFFFF8
:10320000FFFFFFFFFFFFFFFFFFFFF00000000000D8
:1032100000FFFFFFFFFFFFFFFFFFFFFFFFF00000CA
:1032200000000000FFFFFFFFFFFFFFFFFFFFFFFFAA
:10323000F0000000000000FFFFFFFFFFFFFFFFFFA7
:10324000FFFFFFF0000000000000FFFFFFFFFFFF97
:10325000FFFFFFFFFFFFF0000000000000FFFFFF87
:10326000FFFFFFFFFFFFFFFFFFF000000000000077
:10327000FFFFFFFFFFFFFFFFFFFFFFFFF00000006A
:10328000000000FFFFFFFFFFFFFFFFFFFFFFFFF05A
:103290000000000A0000FFFFFFFFFFFFFFFFFFFF2E
:1032A000FFFFF00000007FC000FFFFFFFFFFFFFFF8
:1032B000FFFFFFFFFFF0000001FFE000FFFFFFFF47
:1032C000FFFFFFFFFFFFFFFFF8000003FFF000FF1D
:1032D000FFFFFFFFFFFFFFFFFFFFFFF8000003FFFF
:1032E000FB00FFFFFFFFFFFFFFFFFFFFFFFFF800F7
:1032F0000007FFFF00FFFFFFFFFFFFFFFFFFFFFFD4
:10330000FFF800000FFFFE00FFFFFFFFFFFFFFFFC2
:10331000FFFFFFFFF800000FFFFE00FFFFFFFFFFB2
:10332000FFFFFFFFFFFFFFF800000FFFFE00FFFFA2
:10333000FFFFFFFFFFFFFFFFFFFFF800001FFFFE83
:1033400000FFFFFFFFFFFFFFFFFFFFFFFFF8000091
:103350001FFFFE00FFFFFFFFFFFFFFFFFFFFFFFF5D
:10336000F80000DFFFFE00FFFFFFFFFFFFFFFFFF92
:10337000FFFFFFF80001DFFFFE00FFFFFFFFFFFF81
:10338000FFFFFFFFFFFFFC0007DFFFFE00FFFFFF67
:10339000FFFFFFFFFFFFFFFFFFFC000FCFFFFE005F
:1033A000FFFFFFFFFFFFFFFFFFFFFFFFFC000FEF2F
:1033B000FFFE00FFFFFFFFFFFFFFFFFFFFFFFFFC20
:1033C000001FEFFFFC00FFFFFFFFFFFFFFFFFFFFFE
:1033D000FFFFFC003FEFFFFC00FFFFFFFFFFFFFFD1
:1033E000FFFFFFFFFFFC003FF7FFFC00FFFFFFFFB9
:1033F000FFFFFFFFFFFFFFFFFC003FFFFFF800FFA5
:10340000FFFFFFFFFFFFFFFFFFFFFFFC007FFFFF4E
:10341000F000FFFFFFFFFFFFFFFFFFF9FFFFFC00D2
:103420007FFFFFE000FFFFFFFFFFFFFFFFFFF83F11
:10343000FFFC007FFFFFC000FFFFFFFFFFFFFFFF5C
:10344000FFF80FFFFE007FFFFE0000FFFFFFFFFF02
:10345000FFFFFFFFFC01FFFE007FFFFD0000FFFFFD
:10346000FFFFFFFFFFFFFFFF807FFE007FFFFF806A
:1034700000FFFFFFFFFFFFFFFFFFFFF01FFE007FCA
:10348000FFFF0000FFFFFFFFFFFFFFFFFFFFFE0F3B
:10349000FE007FFFFF0000FFFFFFFFFFFFFFFFFFBA
:1034A000FFF007FE007FFFFF0000FFFFFFFFFFFFB1
:1034B000FFFFFFFF8003FE003FFFFF0000FFFFFF55
:1034C000FFFFFFFFFFFFFC01E1FE003FFFFF0000E9
:1034D000FFFFFFFFFFFFFFFFFFF807F1FE003FFFC9
:1034E000FF8000FFFFFFFFFFFFFFFFFFF83FF1FE40
:1034F000001FFFFF8000FFFFFFFFFFFFFFFFFFF840
:10350000FFF1FE000FFFFDC000FFFFFFFFFFFFFF09
:10351000FFFFFFFFF1FF000FFFF80000FFFFFFFFBD
:10352000FFFFFFFFFFFFFFFFFF0007FFF00000FFAF
:10353000FFFFFFFFFFFFFFFFFFFFFFFF0001FFE0B7
:103540000000FFFFFFFFFFFFFFFFFFFE003FFF0048
:1035500000FF800000FFFFFFFFFFFFFFFFFFFC00F9
:103560003FFF000000000000FFFFFFFFFFFFFFFF25
:10357000FFF8003FFF000000000000FFFFFFFFFF1B
:10358000FFFFFFFFF8003FFF000000000000FFFF0B
:10359000FFFFFFFFFFFFFFF8CC7FFF0000000000F0
:1035A00000FFFFFFFFFFFFFFFFFFF8CE3FFF000020
:1035B00000000000FFFFFFFFFFFFFFFFFFF8CE3F0F
:1035C000FF000000000000FFFFFFFFFFFFFFFFFF05
:1035D000F8C63FFF800000000000FFFFFFFFFFFF75
:1035E000FFFFFFF8C03FFF800000000000FFFFFF6B
:1035F000FFFFFFFFFFFFF8E03FFF8000000000003B
:10360000FFFFFFFFFFFFFFFFFFFC607FFF80000069
:10361000000000FFFFFFFFFFFFFFFFFFFFF0FFFFC6
:10362000800000F00000FFFFFFFFFFFFFFFFFFFF34
:10363000FFFFFF8000036C0000FFFFFFFFFFFFFFA5
:10364000FFFFFFFFFFFF80000DFA0000FFFFFFFFFD
:10365000FFFFFFFFFF00003FFF800017FD0000FF9E
:10366000FFFFFFFFFFFFFFFF00003FFF80002FFE77
:103670008000FFFFFFFFFFFFFFFFFF00003FFF8015
:10368000005FFF4000FFFFFFFFFFFFFFFFFF0000A5
:103690003FFFC0007FFFC000FFFFFFFFFFFFFFFFF6
:1036A000FFF8FC7FFFC000BFFFA000FFFFFFFFFF90
:1036B000FFFFFFFFF8FE7FFFC000FFFFE000FFFFFE
:1036C000FFFFFFFFFFFFFFF8FE3FFFC0017FFFD0BE
:1036D00000FFFFFFFFFFFFFFFFFFF8FE3FFFC001FE
:1036E000FFFFF000FFFFFFFFFFFFFFFFFFF87C3F42
:1036F000FFC002FFFFE800FFFFFFFFFFFFFFFFFF2C
:10370000FC003FFFC003FFFFF800FFFFFFFFFFFFCC
:10371000FFFFFFFC007FFFC005FFFFF400FFFFFF7E
:10372000FFFFFFFFFFFFFE007FFFC007FFFFFC0062
:10373000FFFFFFFFFFFFFFFFFFFF81FFFFC007FF4E
:10374000FFFC00FFFFFFFFFFFFFFFFFFFFFFFFFF8B
:10375000E00BFFFFFC00FFFFFFFFFFFFFFFFFFFF8E
:10376000FFFFFFE00FFFFFFA00FFFFFFFFFFFFFF7C
:10377000FFFFFE003FFFE00FFFFFFE00FFFFFFFF28
:10378000FFFFFFFFFFFC003FFFE00FFFFFFE00FF1A
:10379000FFFFFFFFFFFFFFFFF8003FFFE00FFFFF0E
:1037A000FE00FFFFFFFFFFFFFFFFFFF8003FFFE00E
:1037B00017FFFFFD00FFFFFFFFFFFFFFFFFFF8FF09
:1037C000FFFFE01FFFFFFF00FFFFFFFFFFFFFFFF07
:1037D000FFF8FFFFFFE01FFFFFFF00FFFFFFFFFFFE
:1037E000FFFFFFFFF8FFFFFFE01FFFFFFF00FFFFEE
:1037F000FFFFFFFFFFFFFFFC3FFFFFE01FFFFFFF9B
:1038000000FFFFFFFFFFFFFFFFFFF8003FFFF01F7C
:10381000FFFFFF00FFFFFFFFFFFFFFFFFFF8003F7D
:10382000FFF02FFFFFFF00FFFFFFFFFFFFFFFFFF86
:10383000F8003FFFF03FFFFFFE80FFFFFFFFFFFFAD
:10384000FFFFFFF8003FFFF03FFFFFFF80FFFFFF9C
:10385000FFFFFFFFFFFFFFFFFFFFF03FFFFFFF80C6
:10386000FFFFFFFFFFFFFFFFFFFFFFFFFFF03FFF37
:10387000FFFF80FFFFFFFFFFFFFFFFFFFFFFFFFFD7
:10388000F03FFFFFFF80FFFFFFFFFFFFFFFFFFF89D
:10389000003FFFF03FFFFFFF80FFFFFFFFFFFFFF45
:1038A000FFFFF8003FFFF03FFFFFFF80FFFFFFFF3C
:1038B000FFFFFFFFFFF8003FFFF03FFFFFFF80FF2C
:1038C000FFFFFFFFFFFFFFFFF8003FFFF03FFFFF9D
:1038D000FF80FFFFFFFFFFFFFFFFFFFFF87FFFF805
:1038E0003FFFFFFF80FFFFFFFFFFFFFFFFFFFFFE28
:1038F0007FFFF83FFFFFFF80FFFFFFFFFFFFFFFF9E
:10390000FFFFFE3FFFF83FFFFFFF80FFFFFFFFFFCE
:10391000FFFFFFFFFFFE3FFFF83FFFFFFF80FFFFBE
:10392000FFFFFFFFFFFFFFF8003FFFF83FFFFFFF34
:1039300080FFFFFFFFFFFFFFFFFFF8003FFFF83FA3
:10394000FFFFFF80FFFFFFFFFFFFFFFFFFF8007F8C
:10395000FFF83FFFFFFE80FFFFFFFFFFFFFFFFFFBE
:10396000F800FFFFF82FFFFFFF00FFFFFFFFFFFF43
:10397000FFFFFFFFFFFFFFF81FFFFFFF00FFFFFF3D
:10398000FFFFFFFFFFFFFFFFFFFFF81FFFFFFF002D
:10399000FFFFFFFFFFFFFFFFFFFFFFFFFFFC1FFF1A
:1039A000FFFF00FFFFFFFFFFFFFFFFFFFFFFFFFF26
:1039B000FC1FFFFFFF00FFFFFFFFFFFFFFFFFFFFF9
:1039C000E1FFFFFC1FFFFFFF00FFFFFFFFFFFFFF07
:1039D000FFFFC780FFFFFC17FFFFFD00FFFFFFFF9A
:1039E000FFFFFFFFFF8F807FFFFC0FFFFFFE00FF49
:1039F000FFFFFFFFFFFFFFFF8F007FFFFC0FFFFFB9
:103A0000FE00FFFFFFFFFFFFFFFFFF8F0C3FFFFCEC
:103A10000FFFFFFE00FFFFFFFFFFFFFFFFFF8F1EF7
:103A20003FFFFC0FFFFFFA00FFFFFFFFFFFFFFFF5D
:103A3000FF8E1E3FFFFC0BFFFFFC00FFFFFFFFFFA1
:103A4000FFFFFFFF861E3FFFFC07FFFFFC00FFFF9D
:103A5000FFFFFFFFFFFFFF803E3FFFFE07FFFFF47A
:103A600000FFFFFFFFFFFFFFFFFFC03E3FFFFE0520
:103A7000FFFFF800FFFFFFFFFFFFFFFFFFC07C3FDE
:103A8000FFFE03FFFFF800FFFFFFFFFFFFFFFFFF49
:103A9000F0FC7FFFFE02FFFFE800FFFFFFFFFFFFDC
:103AA000FFFFFFFFFFFFFFFE01FFFFF000FFFFFF33
:103AB000FFFFFFFFFFFFFFFFFFFFFE017FFFD000C3
:103AC000FFFFFFFFFFFFFFFFFFFFFFFFFFFE00FF06
:103AD000FFE000FFFFFFFFFFFFFFFFFFFFFFFFFF14
:103AE000FE00BFFFA000FFFFFFFFFFFFFFFFFFFF84
:103AF000FFFFFFFE007FFFC000FFFFFFFFFFFFFF94
:103B0000FFFFFFFFFFFFFE005FFF4000FFFFFFFF23
:103B1000FFFFFFFFFFFFFFFFFFFF002FFE8000FF03
:103B2000FFFFFFFFFFFFFFFFFFFFFFFFFF0017FD8E
:103B30000000FFFFFFFFFFFFFFFFFFFFFFFFFFFF93
:103B4000000BFA0000FFFFFFFFFFFFFFFFFFFFFF7B
:103B5000FFFFFF00076C0000FFFFFFFFFFFFFFFFFD
:103B6000FFFFFFFFFFFF0000F00000FFFFFFFFFF70
:103B7000FFFFFFFFFFFFFFFFFF0000000000FFFF50
:103B8000FFFFFFFFFFFFFFFFFFFFFFFF0000000041
:103B900000FFFFFFFFFFFFFFFFFFFFFFFFFFFF0033
:103BA00000000000FFFFFFFFFFFFFFFFFFFFFFFF21
:103BB000FFFF0000000000FFFFFFFFFFFFFFFFFF10
:103BC000FFFFFFFFFF8000000000FFFFFFFFFFFF80
:103BD000FFFFFFFFFFFFFFFF8000000000FFFFFF70
:103BE000FFFFFFFFFFFFFFFFFFFFFF800000000060
:103BF000FFFFFFFFFFFFFFFFFFFFFFFFFFFF800053
:103C0000000000FFFFFFFFFFFFFFFFFFFFFFFFFFC1
:103C1000FF8000000000FFFFFFFFFFFFFFFFFFFF2F
:103C2000FFFFFFFF8000000000FFFFFFFFFFFFFF1F
:103C3000FFFFFFFFFFFFFF8000000000C4E3000064
:103C40000000000000001DC01D803BFF3B073F77C8
:103C50007E76F870FBFEFBFE3F773F773E73387051
:103C600038703BE000000000000000000000000091
:103C70000000000000000000000000000000000044
:103C80000000000000000000000000000000000034
:103C90000000000000000000000000000000000024
:103CA0000000000000000000000000000000000014
:103CB0000000000000000000000000000000000004
:103CC00000000000000000000000000000000000F4
:103CD00000000000000000000000000000000000E4
:103CE0000000BAC30000000000000000300073FFB5
:103CF000700FFE1E7E3C6E38EE30EFFFFC307C30E5
:103D000038303E307E30E030C1F00000000000006E
:103D100000000000000000000000000000000000A3
:103D20000000000000000000000000000000000093
:103D30000000000000000000000000000000000083
:103D40000000000000000000000000000000000073
:103D50000000000000000000000000000000000063
:103D60000000000000000000000000000000000053
:103D70000000000000000000000000000000000043
:103D80000000000000000000CAF700000000000072
:103D90000000300E300E3FEE30EEFCFF76CE77FEA8
:103DA0007BFEFFFEF3DEF3CE37EE3E6E3C0E303E82
:103DB0000000000000000000000000000000000003
:103DC00000000000000000000000000000000000F3
:103DD00000000000000000000000000000000000E3
:103DE00000000000000000000000000000000000D3
:103DF00000000000000000000000000000000000C3
:103E000000000000000000000000000000000000B2
:103E100000000000000000000000000000000000A2
:103E20000000000000000000000000000000DDAE07
:103E300000000000000000000670FFFF3E70380028
:103E40007FFFE000FFFC3B8C39CCFFFF739C71DCF3
:103E50007FFF001C01F800000000000000000000CF
:103E60000000000000000000000000000000000052
:103E70000000000000000000000000000000000042
:103E80000000000000000000000000000000000032
:103E90000000000000000000000000000000000022
:103EA0000000000000000000000000000000000012
:103EB0000000000000000000000000000000000002
:103EC00000000000000000000000000000000000F2
:103ED00000000000C5C90000000000000000E01F55
:103EE000FFF03E000E1FCFFBFFF83FFF0FFF7FD814
:103EF0007FDC6FCEEDFFFDF7F9C000000000000091
:103F000000000000000000000000000000000000B1
:103F100000000000000000000000000000000000A1
:103F20000000000000000000000000000000000091
:103F30000000000000000000000000000000000081
:103F40000000000000000000000000000000000071
:103F50000000000000000000000000000000000061
:103F60000000000000000000000000000000000051
:103F700000000000000000000000610000000000E0
:103F80000000000000000000000000003E0067008C
:103F900007800F807F80E380E780E7807F800000DC
:103FA0000000000000000000000000000000000011
:103FB0000000000000000000000000000000000001
:103FC00000000000000000000000000000000000F1
:103FD00000000000000000000000000000000000E1
:103FE00000000000000000000000000000000000D1
:103FF00000000000000000000000000000000000C1
:1040000000000000000000000000000000000000B0
:1040100000000000000000000000000000000000A0
:1040200062000000000000000000700070007000DE
:1040300070007F007B8071C071C071C071C071C0A1
:104040007B807F00000000000000000000000000F6
:104050000000000000000000000000000000000060
:104060000000000000000000000000000000000050
:104070000000000000000000000000000000000040
:104080000000000000000000000000000000000030
:104090000000000000000000000000000000000020
:1040A0000000000000000000000000000000000010
:1040B0000000000000000000000000000000000000
:1040C000000000000000630000000000000000008D
:1040D00000000000000000003F007300F000E0005E
:1040E000E000E000F00073003F000000000000006E
:1040F00000000000000000000000000000000000C0
:1041000000000000000000000000000000000000AF
:10411000000000000000000000000000000000009F
:10412000000000000000000000000000000000008F
:10413000000000000000000000000000000000007F
:10414000000000000000000000000000000000006F
:10415000000000000000000000000000000000005F
:10416000000000000000000000000000410000000E
:1041700000000000000000000E001F001F001F00D4
:104180003B803B8071807FC071C0E0E0E0E0E0E018
:10419000000000000000000000000000000000001F
:1041A000000000000000000000000000000000000F
:1041B00000000000000000000000000000000000FF
:1041C00000000000000000000000000000000000EF
:1041D00000000000000000000000000000000000DF
:1041E00000000000000000000000000000000000CF
:1041F00000000000000000000000000000000000BF
:1042000000000000000000000000000000000000AE
:10421000000000000000000000000000000000009E
:10422000000000000000000000000000000000008E
:104230000000000000000000000000000700070070
:104240000700070007000700070002000200000047
:104250000000070007000000000000000000000050
:104260000000000000001CE01CE01CE008400840CA
:1042700008400000000000000000000000000000F6
:10428000000000000000000000000CC00CC00CC0CA
:104290000CC00CC03FF03FF00CC00CC03FF03FF032
:1042A0000CC00CC00CC00CC00CC000000000000012
:1042B00000000300030007E00FE0186018001F0073
:1042C0000FC000E0186018601FC01F8003000300CB
:1042D0000300000000000000000000001C0022009D
:1042E000220022001C6001E00F803C0031C002204F
:1042F0000220022001C000000000000000000000B9
:10430000000000000000000003E00FE00C000C00C3
:1043100006000F301FF019E018C01FF007B00000B2
:10432000000000000000000000000000000003800A
:104330000380038001000100010000000000000074
:10434000000000000000000000000000000000006D
:104350000000000000C000C0018001800180030057
:1043600003000300030003000300018001800180BB
:1043700000C000C000000000000000000C000C00A5
:10438000060006000600030003000300030003000C
:1043900003000600060006000C000C0000000000F0
:1043A000000000000300030003001B601FE0078003
:1043B00007800FC00CC000000000000000000000DB
:1043C00000000000000000000000000000000000ED
:1043D00003000300030003003FF03FF0030003006D
:1043E00003000300000000000000000000000000C7
:1043F00000000000000000000000000000000000BD
:10440000000000000000000003800300030006001D
:104410000600040000000000000000000000000092
:1044200000000000000000003FE03FE0000000004E
:10443000000000000000000000000000000000007C
:10444000000000000000000000000000000000006C
:1044500000000000000000000380038003800000D3
:10446000000000000000000000000060006000C0CC
:1044700000C000C0018001800300030006000600A8
:104480000C000C000C0018001800000000000000D8
:10449000000000000F801FC018C030603060306026
:1044A000306030603060306018C01FC00F80000086
:1044B00000000000000000000000000003001F00DA
:1044C0001F000300030003000300030003000300B8
:1044D00003001FE01FE000000000000000000000DB
:1044E000000000000F801FC038E03060006000C096
:1044F0000180030006000C0018003FE03FE00000D0
:104500000000000000000000000000000F803FC01D
:1045100030E0006000E007C007C000E0006000601D
:1045200060E07FC03F80000000000000000000004D
:104530000000000001C003C003C006C00CC00CC0D6
:1045400018C030C03FE03FE000C003E003E00000DF
:104550000000000000000000000000001FC01FC09D
:10456000180018001F801FC018E000600060006085
:1045700030E03FC01F80000000000000000000008D
:104580000000000003E00FE01E0018003800378034
:104590003FC038E03060306018E01FC00780000086
:1045A0000000000000000000000000003FE03FE0CD
:1045B0003060006000C000C000C001800180018048
:1045C00003000300030000000000000000000000E2
:1045D000000000000F801FC038E0306038E01FC0CE
:1045E0001FC038E03060306038E01FC00F8000002E
:1045F0000000000000000000000000000F001FC0CD
:1046000038C03060306038E01FE00F6000E000C06C
:1046100003C03F803E0000000000000000000000DA
:104620000000000000000000000000000380038084
:10463000038000000000000003800380038000006E
:10464000000000000000000000000000000000006A
:104650000000000001C001C001C000000000000017
:1046600003800300060006000400000000000000B4
:104670000000000000000000003000F003C0070050
:104680001C0078001C00070003C000F00030000090
:10469000000000000000000000000000000000001A
:1046A000000000007FF07FF0000000007FF07FF04E
:1046B00000000000000000000000000000000000FA
:1046C000000000000000000030003C000F000380EC
:1046D00000E0007800E003800F003C0030000000A4
:1046E00000000000000000000000000000000F803B
:1046F0001FC018601860006001C003800300000044
:10470000000007000700000000000000000000009B
:104710000000000003800C8008401040104011C0D1
:1047200012401240124011C01000080008400780DB
:1047300000000000000000000000000000001F80DA
:104740001F80038006C006C00CC00C601FE01FE085
:104750003030787878780000000000000000000019
:104760000000000000003F803FC01860186018E0A3
:104770001FC01FE01870183018303FF03FE00000F5
:10478000000000000000000000000000000007B072
:104790000FF01C70383030003000300030003830FE
:1047A0001C700FE007C000000000000000000000C7
:1047B0000000000000007F807FC030E030703030AB
:1047C000303030303030307030E07FC07F800000DB
:1047D00000000000000000000000000000003FF0AA
:1047E0003FF01830183019801F801F801980183052
:1047F00018303FF03FF00000000000000000000013
:104800000000000000003FF03FF018301830198021
:104810001F801F801980180018003F003F00000013
:10482000000000000000000000000000000007B0D1
:104830001FF0187030303000300031F831F830306F
:1048400018301FF007C0000000000000000000004A
:104850000000000000003CF03CF018601860186098
:104860001FE01FE01860186018603CF03CF000008A
:1048700000000000000000000000000000001FE039
:104880001FE0030003000300030003000300030014
:1048900003001FE01FE00000000000000000000017
:1048A00000000000000003F803F8006000600060F2
:1048B000006030603060306030E03FC00F8000004A
:1048C00000000000000000000000000000003EF8B2
:1048D0003EF818E019801B001F001D8018C018C08A
:1048E00018603E783E380000000000000000000024
:1048F0000000000000003F003F000C000C000C0016
:104900000C000C000C300C300C303FF03FF000007D
:1049100000000000000000000000000000007878A7
:10492000787838703CF034B037B037B0333033304B
:1049300030307CF87CF8000000000000000000002F
:1049400000000000000039F03DF01C601E601E6099
:104950001B601B6019E019E018E03EE03E600000BB
:1049600000000000000000000000000000000780C0
:104970000FC01CE03870303030303030303038709C
:104980001CE00FC0078000000000000000000000D5
:104990000000000000003FC03FE0187018301830E1
:1049A00018701FE01FC0180018003F003F000000F3
:1049B0000000000000000000000000000000078070
:1049C0000FC01CE03870303030303030303038704C
:1049D0001CE00FC0078007B00FF00CE000000000E3
:1049E0000000000000003FC03FE018701830187051
:1049F0001FE01FC018E0186018703E383E18000015
:104A000000000000000000000000000000000FB0E7
:104A10001FF03870303038001F8007E000703030F1
:104A200038703FE037C000000000000000000000C8
:104A30000000000000003FF03FF0333033303330EF
:104A4000030003000300030003000FC00FC00000B9
:104A500000000000000000000000000000003CF02A
:104A60003CF01860186018601860186018601860D2
:104A70001CE00FC0078000000000000000000000E4
:104A800000000000000078F078F03060306018C05E
:104A900018C00D800D800D80070007000700000082
:104AA00000000000000000000000000000007C7C0E
:104AB0007C7C301833983398339836D816D01C70D5
:104AC0001C701C7018300000000000000000000086
:104AD00000000000000078F078F0306018C00D8011
:104AE000070007000D8018C0306078F078F00000F3
:104AF00000000000000000000000000000003CF08A
:104B00003CF018600CC0078007800300030003001E
:104B100003000FC00FC000000000000000000000F4
:104B20000000000000001FE01FE0186018C00180B6
:104B30000300030006000C6018601FE01FE0000087
:104B400000000000000000000000000003C003C0DF
:104B5000030003000300030003000300030003003D
:104B6000030003000300030003C003C000000000B3
:104B70000000180018000C000C000C0006000600D5
:104B8000030003000180018000C000C000C000607D
:104B90000060000000000000000000000F000F0097
:104BA00003000300030003000300030003000300ED
:104BB00003000300030003000F000F0000000000CB
:104BC00000000000020007000D8018C030602020A7
:104BD00000000000000000000000000000000000D5
:104BE00000000000000000000000000000000000C5
:104BF00000000000000000000000000000000000B5
:104C00000000000000000000000000000000FFFCA9
:104C1000FFFC000004000300008000000000000012
:104C20000000000000000000000000000000000084
:104C30000000000000000000000000000000000074
:104C4000000000000FC01FE000600FE01FE03860B0
:104C500030E03FF01F700000000000000000000086
:104C600000000000700070003000300037803FE02E
:104C7000386030303030303038607FE0778000008E
:104C80000000000000000000000000000000000024
:104C90000000000007B01FF0183030303000300046
:104CA00038301FF00FC000000000000000000000BE
:104CB00000000000007000700030003007B01FF0EE
:104CC000187030303030303038701FF807B80000BE
:104CD00000000000000000000000000000000000D4
:104CE0000000000007801FE018603FF03FF0300038
:104CF00018301FF007C00000000000000000000096
:104D00000000000003F007F0060006001FE01FE0AF
:104D1000060006000600060006001FE01FE0000077
:104D20000000000000000000000000000000000083
:104D30000000000007B81FF81870303030303030F5
:104D400018701FF007B0003000700FE00FC00000B7
:104D50000000000038003800180018001BC01FE0D9
:104D60001C6018601860186018603CF03CF000008F
:104D7000000000000000000000000000030003002D
:104D8000000000001F001F000300030003000300D9
:104D900003001FE01FE00000000000000000000012
:104DA0000000000003000300000000001FC01FC03F
:104DB00000C000C000C000C000C000C000C000C0F3
:104DC00001C03F803F0000000000000038003800B4
:104DD000180018001BE01BE01B001E001E001B003B
:104DE000198039F039F000000000000000000000D8
:104DF000000000001F001F00030003000300030069
:104E0000030003000300030003001FE01FE0000095
:104E10000000000000000000000000000000000092
:104E2000000000007EE07FF0333033303330333029
:104E300033307BB87BB800000000000000000000A9
:104E40000000000000000000000000003BC03FE048
:104E50001C6018601860186018603CF03CF000009E
:104E60000000000000000000000000000000000042
:104E70000000000007801FE0186030303030303014
:104E800018601FE007800000000000000000000024
:104E900000000000000000000000000077807FE0BC
:104EA000386030303030303038603FE037803000AC
:104EB00030007C007C0000000000000000000000CA
:104EC0000000000007B81FF8187030303030303064
:104ED00018701FF007B00030003000F800F8000034
:104EE0000000000000000000000000003CE03DF079
:104EF0000F300E000C000C000C003FC03FC0000043
:104F000000000000000000000000000000000000A1
:104F10000000000007E01FE018601E000FC001E065
:104F200018601FE01F80000000000000000000006B
:104F30000000000000000C000C000C003FE03FE00F
:104F40000C000C000C000C000C300FF007C000002F
:104F50000000000000000000000000000000000051
:104F60000000000038E038E0186018601860186031
:104F700018E01FF00F7000000000000000000000AB
:104F800000000000000000000000000078F078F051
:104F9000306018C018C00D800D80070007000000A9
:104FA0000000000000000000000000000000000001
:104FB0000000000078F078F03260326037E01DC009
:104FC0001DC018C018C00000000000000000000054
:104FD0000000000000000000000000003CF03CF079
:104FE0000CC00780030007800CC03CF03CF00000C0
:104FF00000000000000000000000000000000000B1
:105000000000000078F078F0306018C018C00D8003
:105010000F800700060006000C007F007F000000E4
:105020000000000000000000000000001FE01FE082
:1050300018C00180030006000C601FE01FE00000A4
:1050400000000000000000000000000001C003C0DC
:105050000300030003000300030007000E00070025
:10506000030003000300030003C001C000000000B0
:10507000000000000300030003000300030003001E
:105080000300030003000300030003000300030008
:105090000300030000000000000000001C001E00D0
:1050A0000600060006000600060007000380070051
:1050B00006000600060006001E001C00000000009E
:1050C00000000000000000000000000000000E00D2
:1050D0003F3033F001E0000000000000000000005D
:1050E00000000000000000000000000000000000C0
:1050F0000000010203040607080900000000010285
:105100000304000044656275673A205061696E745B
:105110005F44726177537472696E675F454E2049D0
:105120006E70757420657863656564732074686556
:10513000206E6F726D616C20646973706C61792090
:1051400072616E67650D0A0044656275673A2050AA
:1051500061696E745F44726177436972636C652044
:10516000496E707574206578636565647320746832
:1051700065206E6F726D616C20646973706C61790B
:105180002072616E67650D0A00000000AC510008D6
:105190000000002030000000A01F0008DC510008C3
:1051A00030000020B0A00000B01F00083C3C000808
:1051B00009000B0010001500124200080E00140038
:1051C00001000000100000000000000000A24A04DE
:0C51D000000000000000000000000000D3
:0400000508000131BD
:00000001FF
